:020000040800F2
:10000000B84B002001010008552C00087129000898
:10001000512C00089101000845390008000000003B
:10002000000000000000000000000000712D00082A
:10003000C502000800000000D12C00082536000889
:100040001B0100081B0100081B0100081B01000820
:100050001B0100081B0100081B0100081B01000810
:100060001B0100081B0100081B0100081B01000800
:100070001B0100081B0100081B0100081B010008F0
:100080001B0100081B0100081B010008253900089E
:10009000353900081B0100081B0100081B0100087E
:1000A0001B010008E13600081B0100081B010008C5
:1000B000F13600081B0100081B0100081B010008A5
:1000C0001B0100081B0100081B0100081B010008A0
:1000D0001B0100081B0100081B0100081B01000890
:1000E0001B0100081B0100081B010008DFF80CD0F1
:1000F00000F03CF800480047FD390008B84B0020EC
:100100000648804706480047FEE7FEE7FEE7FEE7B1
:10011000FEE7FEE7FEE7FEE7FEE7FEE7DD36000866
:10012000ED00000840EA01039B0703D009E008C97D
:10013000121F08C0042AFAD203E011F8013B00F8AC
:10014000013B521EF9D27047D2B201E000F8012BF8
:10015000491EFBD270470022F6E710B513460A4647
:1001600004461946FFF7F0FF204610BD064C074D28
:1001700006E0E06840F0010394E807009847103477
:10018000AC42F6D3FFF7B6FF645900088459000863
:10019000FFE7FEE780B58CB001200A9000210791AF
:1001A000069102910391049105910891099040F202
:1001B0009400C2F2000002A900F0A8F9002801D0C2
:1001C000FFE7FFE740F29400C2F2000040F2024174
:1001D000019000F0C7F801990090084600F090FFE8
:1001E0000CB080BD80B58AB009900891079209983B
:1001F00001900020039002900490089905910690C8
:10020000079A40F29400C2F2000001A96B4600F088
:10021000CBF80AB080BD000080B582B040F2180073
:10022000C2F200000168406840F23002C2F20002EF
:100230001368526850405940084300282BD1FFE70B
:1002400040F22000C2F2000001684268013142F130
:1002500000020160426001684068C93970F1000025
:1002600018D3FFE740F26400C2F20000002100F85A
:100270001C1F732201230190104600911946019A18
:10028000FFF7B0FF40F22000C2F200000099416089
:100290000160FFE707E040F22000C2F20000002109
:1002A00041600160FFE740F23000C2F200000168E7
:1002B000406840F21802C2F200025060116002B0C1
:1002C00080BD00007047000080B503F093F940F254
:1002D0006400C2F200000121817740F60040C4F2C0
:1002E00001004FF40041002201F02AF980BD000016
:1002F00080B588B050200090002001900221049128
:1003000002900391059040F29400C2F20000694609
:100310000DF11F0206AB00F047F808B080BD0000E9
:1003200080B584B001208DF80F0075210DF10F020A
:1003300002900846029B019119460092FFF752FF76
:1003400000208DF80F0001980299009AFFF74AFFEC
:1003500004B080BD81B0EFF3108072B60090FFE76B
:10036000FEE7000084B0029001910298006B0090BB
:100370000098012804D0FFE70098022809D1FFE780
:100380000198029909684A69104348610020039066
:1003900007E00298416B41F4802141630120039002
:1003A000FFE7039804B0704788B006900591049267
:1003B00003930698006B019006980068806800908F
:1003C00005988068002801D1FFE700E0FFE7019869
:1003D000012805D0FFE70198022840F08C80FFE754
:1003E0009DF80300400700280CD4FFE79DF80300A8
:1003F0000007002806D4FFE79DF80300C006002888
:1004000071D5FFE70098C0F30160029002980328BD
:1004100008D3FFE70698416B41F4000141630120D6
:10042000079070E00298012101FA00F0039908603A
:100430000598806800280DD1FFE705980168C0681D
:1004400040EA415006990968029A01EB0211C1F88D
:1004500080010EE0059841688268C06842EAC101E7
:10046000084306990968029A01EB0211C1F880015C
:10047000FFE70598006906990968029A01EB0211E5
:10048000C1F884010598406901280CD1FFE706985E
:100490000068029900EB0110D0F8841141F48071DA
:1004A000C0F88411FFE70498406806990968029A29
:1004B00001EB0211C1F88C010498006806990968E3
:1004C000029A01EB0211C1F88801069800680299AE
:1004D00000EB0110D0F8801141F00101C0F880114B
:1004E000002007900FE00698416B41F40011416332
:1004F0000120079007E00698416B41F48021416399
:1005000001200790FFE7079808B0704786B0049075
:1005100003910498006801900498006B0090009883
:10052000012805D0FFE70098022840F0A280FFE7ED
:100530000198D0F8001241F00101C0F800120398B0
:10054000406900F01F00012101FA00F002900298BA
:100550000199D1F81C2222EA0000C1F81C0203987C
:10056000C06900281FD1FFE702980199D1F80C2239
:1005700022EA0000C1F80C0203988188C268406931
:1005800041EA0241019A02EBC000C0F84012039810
:1005900001888268406941EA0241019A02EBC00089
:1005A000C0F84412FFE70398C06901281ED1FFE795
:1005B00002980199D1F80C221043C1F80C0203985B
:1005C00081880268406941EA0241019A02EBC00059
:1005D000C0F84012039881898268406941EA02416B
:1005E000019A02EBC000C0F84412FFE7039880694B
:1005F000002809D1FFE702980199D1F8042222EAE4
:100600000000C1F8040207E002980199D1F8042221
:100610001043C1F80402FFE703980069002809D1DC
:10062000FFE702980199D1F8142222EA0000C1F8EC
:10063000140207E002980199D1F814221043C1F87E
:100640001402FFE70398006A012808D1FFE7029827
:100650000199D1F81C221043C1F81C02FFE7019850
:10066000D0F8001221F00101C0F80012002005901E
:1006700007E00498416B41F480214163012005901B
:10068000FFE7059806B0704781B0009001B0704751
:1006900086B004900391029201930498006B00903D
:1006A0000098012805D0FFE70098022840F0D98083
:1006B000FFE70398002810D1FFE704980068C0689E
:1006C0008007002808D1FFE70498416B41F400112E
:1006D000416301200590CCE00FE0049800680069B8
:1006E0008007002808D1FFE70498416B41F400110E
:1006F000416301200590BCE0FFE70498006803997E
:1007000000EB0110D0F8B00100F0040002998860FD
:100710000298806800280BD1FFE7049800680399CD
:1007200000EB0110D0F8B001400D029908600AE01A
:1007300004980068039900EB0110D0F8B001C008DC
:1007400002994860FFE704980068039900EB0110E4
:10075000D0F8B00100F002000299C8600498006867
:10076000039900EB0110D0F8B40100F00F000299DA
:10077000086104980068039900EB0110D0F8B401F7
:1007800080B2000A0299886104980068039900EB1E
:100790000110D0F8B401000C029948610498006877
:1007A000039900EB0110D0F8B80101990870049882
:1007B0000068039900EB0110D0F8B801000A019914
:1007C000487004980068039900EB0110D0F8B80154
:1007D000000C0199887004980068039900EB0110DF
:1007E000D0F8B801000E0199C87004980068039908
:1007F00000EB0110D0F8BC01019908710498006861
:10080000039900EB0110D0F8BC01000A019948716E
:1008100004980068039900EB0110D0F8BC01000CAB
:100820000199887104980068039900EB0110D0F8D1
:10083000BC01000E0199C8710398002807D1FFE799
:1008400004980068C16841F02001C16006E0049886
:100850000068016941F020010161FFE70020059077
:1008600007E00498416B41F4802141630120059029
:10087000FFE7059806B0704780B58AB00990002060
:1008800008900998006840690790099800684068D6
:100890000690099800688068059009980068C0680B
:1008A00004900998006800690390099800688069BD
:1008B00002909DF81C00C007002800F09780FFE719
:1008C0009DF81400C00700282BD0FFE709980068A6
:1008D000012181609DF814008007002804D5FFE7FE
:1008E000099800F051FC1BE09DF814004007002817
:1008F00005D5FFE7089840F4006008900FE09DF8E8
:1009000014000007002805D5FFE7089840F4805040
:10091000089003E0099800F033FCFFE7FFE7FFE7EA
:10092000FFE79DF81500C00700282CD0FFE70998C5
:1009300000684FF4807181609DF8150080070028E1
:1009400004D5FFE7099800F027FC1BE09DF815008F
:100950004007002805D5FFE7089840F400500890AC
:100960000FE09DF815000007002805D5FFE708985F
:1009700040F48040089003E0099800F009FCFFE78C
:10098000FFE7FFE7FFE79DF81600C00700282CD01F
:10099000FFE7099800684FF4803181609DF81600E8
:1009A0008007002804D5FFE7099800F0FDFB1BE055
:1009B0009DF816004007002805D5FFE7089840F489
:1009C000004008900FE09DF816000007002805D5AC
:1009D000FFE7089840F48030089003E0099800F0A1
:1009E000DFFBFFE7FFE7FFE7FFE7FFE79DF81C00FE
:1009F0000007002810D5FFE79DF81000C00600286A
:100A000009D5FFE7089840F400700890099800683D
:100A10001021C160FFE7FFE79DF81C004007002898
:100A20000FD5FFE79DF810000007002808D5FFE765
:100A3000099800680821C160099800F06BFAFFE787
:100A4000FFE79DF81C00800700280CD5FFE70998F8
:100A50000068C0688007002804D0FFE7099800F00C
:100A60005DFAFFE7FFE79DF81C004006002810D55F
:100A7000FFE79DF80C00C006002809D5FFE708989D
:100A800040F4806008900998006810210161FFE738
:100A9000FFE79DF81C00800600280FD5FFE79DF8B2
:100AA0000C000007002808D5FFE709980068082116
:100AB0000161099800F018FBFFE7FFE79DF81C00B3
:100AC000C00600280CD5FFE7099800680069800778
:100AD000002804D0FFE7099800F00AFBFFE7FFE7D2
:100AE0009DF81E00800700280FD5FFE79DF818002D
:100AF000C006002808D5FFE709980068102141606A
:100B0000099800F0F9FAFFE7FFE79DF81E00C0071B
:100B100000280FD0FFE79DF818000007002808D52F
:100B2000FFE70998006808214160099800F040FB40
:100B3000FFE7FFE79DF81D000006002840F18F80C9
:100B4000FFE79DF818004007002840F18380FFE789
:100B50009DF81D00C00700280BD0FFE79DF8080096
:100B6000C007002805D0FFE7089840F00100089072
:100B7000FFE79DF81D00800700280BD5FFE79DF8D3
:100B800008008007002805D5FFE7089840F002001C
:100B90000890FFE79DF81D00400700280BD5FFE7F0
:100BA0009DF808004007002805D5FFE7089840F0A9
:100BB00004000890FFE79DF81D000007002848D5B5
:100BC000FFE79DF8080010F0700F42D0FFE7029891
:100BD00000F0700001461028019114D0FFE7019841
:100BE000202815D0FFE70198302816D0FFE701989C
:100BF000402817D0FFE70198502818D0FFE7019848
:100C0000602819D01DE0089840F00800089019E00D
:100C1000089840F01000089014E0089840F0200078
:100C200008900FE0089840F0400008900AE008980B
:100C300040F08000089005E0089840F4807008902B
:100C400000E0FFE709980068816921F07001816187
:100C5000FFE7FFE70998006804214160FFE7089873
:100C6000002809D0FFE7089809994A6B10434863A8
:100C70000998FFF709FDFFE70AB080BD80B584B091
:100C800002900298002803D1FFE701200390DBE0E7
:100C90000298006B002804D1FFE7029800F0D8F812
:100CA000FFE702980068016841F00101016000F06F
:100CB0005FFC0190FFE7029800684068C0070028C9
:100CC00013D1FFE700F054FC0199401A0B280BD315
:100CD000FFE70298416B41F400314163029805211E
:100CE000016301200390AFE0E5E702980068016826
:100CF00021F00201016000F03BFC0190FFE7029847
:100D0000006840688007002813D5FFE700F030FC3A
:100D10000199401A0B280BD3FFE70298416B41F46D
:100D200000314163029805210163012003908BE0AB
:100D3000E5E702988069012807D1FFE7029800687B
:100D4000016841F08001016006E0029800680168D6
:100D500021F080010160FFE70298C069012807D1F6
:100D6000FFE702980068016841F04001016006E079
:100D700002980068016821F040010160FFE70298D5
:100D8000006A012807D1FFE702980068016841F076
:100D90002001016006E002980068016821F020014E
:100DA0000160FFE70298406A012807D1FFE7029837
:100DB0000068016821F01001016006E002980068F7
:100DC000016841F010010160FFE70298806A012884
:100DD00007D1FFE702980068016841F0080101604F
:100DE00006E002980068016821F008010160FFE751
:100DF0000298C06A012807D1FFE7029800680168DD
:100E000041F00401016006E002980068016821F0E9
:100E100004010160FFE70298016842688368D0F826
:100E20000CC043EA0C03D0F810C043EA0C0340693D
:100E30001843013A1043C8610298002141630298A7
:100E4000012202630391FFE7039804B080BD000014
:100E500080B58CB00B9000200A9009900890079004
:100E60000B98006846F20041C4F2000188424ED15E
:100E7000FFE7FFE741F21C00C4F20200016841F005
:100E800000710160006800F0007006900698FFE7AE
:100E9000FFE741F21800C4F20200016841F00401CA
:100EA0000160006800F0040005900598FFE74FF42A
:100EB0000060079000200890099040F60001C4F2FD
:100EC000010107AA0490084603911146029200F01E
:100ED00073F94FF4805007900220089003200A9085
:100EE0000398029900F068F9132001900499049A7C
:100EF00000F0FCFB019800F0F1FB14200090049935
:100F0000049A00F0F3FB009800F0E8FBFFE70CB058
:100F100080BD000081B0009001B0704780B586B000
:100F2000059000208DF81300059940F24802C2F2A6
:100F3000000240F23803C2F200030390084603990E
:100F4000FFF7A6FB002801D1FFE7FFE740F24800CA
:100F5000C2F200000068503801462828029100F2D1
:100F6000C1800299DFE801F015BEBE5FBEBE6ABE59
:100F7000BEBEBEBEBEBEBEBEBEBEBEBEBEBEBEBE91
:100F8000BEBEBEBEBEBEBEBEBEBEBEBEBEBE8C75FC
:100F9000990040F23000C2F200000168426801315D
:100FA00042F100020160426040F26400C2F20000BF
:100FB0004FF00101017740F23801C2F200010A78D6
:100FC000497841EA0221C181B0F90E10808981423D
:100FD00014DDFFE740F26400C2F20000C07C02288A
:100FE0000CD1FFE740F24000C2F20000006800218F
:100FF0000191019A019B03F0E1FEFFE740F26400DA
:10100000C2F20000B0F90E00C7280BDCFFE740F287
:101010006400C2F20000C07C032803D1FFE702F0A5
:10102000C5F9FFE75EE040F23800C2F20000007848
:1010300040F26401C2F20001487653E040F2380009
:10104000C2F20000007840F26401C2F2000188762A
:1010500048E040F22800C2F200000121017040F295
:101060006400C2F20000807F022807D0FFE740F250
:101070006400C2F200000121417500E0FFE731E0A9
:1010800040F22800C2F200000121017040F2640029
:10109000C2F200000021417524E040F23800C2F2A3
:1010A00000000178427842EA012140F26402C2F273
:1010B00000029181817842F2107359434FF0FF3C56
:1010C0000CEB51011160C17859430CEB5101516097
:1010D00001791176417959430CEB51019160807986
:1010E000D076FFE706B080BD81B0009001B07047B8
:1010F00081B0009001B0704781B0009001B070479E
:1011000080B584B002900298006B01282CD1FFE7D3
:1011100002980221016302980068016821F0010130
:10112000016000F025FA0190FFE70298006840682E
:10113000C007002813D0FFE700F01AFA0199401AFF
:101140000B280BD3FFE70298416B41F40031416358
:10115000029805210163012003900DE0E5E7029864
:1011600000214163039107E00298416B41F40021A3
:10117000416301200390FFE7039804B080BD0000A5
:1011800081B0009001B0704781B0009001B070470D
:1011900081B0009001B0704781B0009001B07047FD
:1011A00081B0009001B0704781B0009001B07047ED
:1011B00081B0009001B0704790B00F900E91002068
:1011C0000D900990FFE70E9800680D99C84000281F
:1011D00000F08781FFE70D98012101FA00F00C90E3
:1011E0000E9800680C9908400B900B980C99884257
:1011F00040F07381FFE70E9840680028059051D0B9
:10120000FFE7059801283AD0FFE7059802283FD06C
:10121000FFE70598032860D0FFE70598112832D032
:10122000FFE70598122838D0FFE70020C1F211002F
:101230000599814236D0FFE70020C1F212000599DE
:1012400081422FD0FFE70020C1F2210005998142A1
:1012500028D0FFE70020C1F222000599814221D069
:10126000FFE70020C1F23100059981421AD0FFE763
:101270000020C1F232000599814213D030E00E986F
:10128000C06809902DE00E98C0680430099028E0ED
:101290000E98C0680830099023E00E98C0680C30A2
:1012A00009901EE00E988068002803D1FFE7042013
:1012B000099011E00E988068012806D1FFE7082008
:1012C00009900C980F99086105E0082009900C9886
:1012D0000F994861FFE7FFE703E00020099000E075
:1012E000FFE70B98FF2803D8FFE70F98049003E06F
:1012F0000F9804300490FFE7049808900B98FF289B
:1013000004D8FFE70D988000039006E00D986FF079
:101310001F0101EB80000390FFE7039807900898F6
:10132000006807990F228A409043099A02FA01F156
:101330000843089908600E98C079C006002840F15B
:10134000CB80FFE7FFE741F21800C4F2020001681A
:1013500041F001010160006800F00100069006986C
:10136000FFE70D9820F003000821C4F20101405866
:101370000A900D9800F0030080000F2101FA00F0A0
:101380000A9921EA00000A900F9840F60001C4F281
:101390000101884203D1FFE70020029026E00F9868
:1013A00040F60041C4F20101884203D1FFE7012069
:1013B000019018E00F9841F20001C4F20101884247
:1013C00003D1FFE7022000900AE00F9841F20041AC
:1013D000C4F201010422884208BF03220092FFE701
:1013E00000980190FFE701980290FFE702980D999D
:1013F00001F00301890088400A9908430A900A987D
:101400000D9921F003010822C4F2010288500E98C0
:101410008079C007002809D0FFE70B9840F200410F
:10142000C4F201010A681043086009E00B9840F219
:101430000041C4F201010A6822EA00000860FFE7E7
:101440000E9880798007002809D5FFE70B9840F2B5
:101450000441C4F201010A681043086009E00B98D6
:1014600040F20441C4F201010A6822EA0000086067
:10147000FFE70E988079C006002809D5FFE70B9892
:1014800040F20841C4F201010A681043086009E013
:101490000B9840F20841C4F201010A6822EA0000F8
:1014A0000860FFE70E9880798006002809D5FFE7DD
:1014B0000B9840F20C41C4F201010A681043086025
:1014C00009E00B9840F20C41C4F201010A6822EADB
:1014D00000000860FFE7FFE7FFE70D9801300D907F
:1014E00071E610B07047000083B00A460290ADF874
:1014F000061002988068BDF80610084203D0FFE786
:101500000120009002E000200090FFE7009803B067
:101510007047000083B00A460290ADF806100298AA
:10152000C06800900098BDF8061000EA010321EAA7
:10153000000040EA03400299086103B070470000D0
:1015400083B00B460290ADF8061000920098002878
:1015500005D0FFE7BDF806000299086105E0BDF877
:101560000600000402990861FFE703B0704700001D
:1015700044F2E860C2F200000068704740F20800E0
:10158000C2F20000006844F2E861C2F200010A6899
:10159000104408607047000080B582B042F200003D
:1015A000C4F20200016841F010010160032000F064
:1015B000B9F80F2000F006F8019000F05DF8002067
:1015C00002B080BD80B58EB00C90002006900590D2
:1015D0000C99192202901046029B01921A4600F0C3
:1015E00085F8019800F07AF8FFE741F21800C4F29C
:1015F0000200016841F400610160006800F40060CD
:1016000003900398FFE707A804A900F0B7F900F0DA
:10161000E5F9069006984DF68361C4F21B31A0FBF4
:1016200001014FF0FF3202EB9141059140F2CC01F4
:10163000C2F2000142F60042C4F201020A6040F226
:10164000E732CA60059A4A6000220A618A60009007
:10165000084600F0E5FD002808D1FFE740F2CC0085
:10166000C2F2000000F0ACFE0D9002E001200D90EF
:10167000FFE70D980EB080BD83B0FFE741F2180080
:10168000C4F20200016841F001010160006800F04D
:10169000010002900298FFE7FFE741F21C00C4F24C
:1016A0000200016841F080510160006800F0805044
:1016B00001900198FFE7FFE70420C4F201000168F0
:1016C0000091009921F0E0610091009941F00071D2
:1016D000009100990160FFE703B0704780B582B0C8
:1016E0000190019802F030F902B080BD80B586B05B
:1016F0000590049103920020029002F03BF90290C1
:1017000005980299049A039B0190084611461A46CF
:1017100001F0A2FA019900900846009902F032F90E
:1017200006B080BD80B582B00190019802F048F902
:1017300002B080BD80B584B002900191029800286B
:1017400003D1FFE70120039014E1019842F2000168
:10175000C4F20201096801F00701884215D9FFE7C8
:1017600042F20000C4F20200016821F00701019A70
:1017700011430160006800F007000199884203D01E
:10178000FFE701200390F5E0FFE70298007880076B
:1017900000282AD5FFE7029800784007002809D5DD
:1017A000FFE741F20400C4F20200016841F4E06185
:1017B0000160FFE7029800780007002809D5FFE7DD
:1017C00041F20400C4F20200016841F4605101607A
:1017D000FFE741F20400C4F20200016821F0F001C9
:1017E000029A926811430160FFE702980078C007EF
:1017F00000285CD0FFE70298406801280DD1FFE780
:1018000041F20000C4F2020000688003002803D403
:10181000FFE701200390ADE01FE002984068022836
:101820000DD1FFE741F20000C4F202000068800120
:10183000002803D4FFE7012003909BE00CE041F275
:101840000000C4F2020000688007002803D4FFE70C
:10185000012003908EE0FFE7FFE741F20400C4F2AD
:101860000200016821F00301029A526811430160ED
:10187000FFF77EFE0090FFE741F20400C4F2020091
:10188000006800F00C0002994968B0EB810F0DD0A0
:10189000FFE7FFF76DFE0099401A41F28931884257
:1018A00003D3FFE70320039064E0E5E7FFE7019837
:1018B00042F20001C4F20201096801F00701884206
:1018C00015D2FFE742F20000C4F20200016821F0E5
:1018D0000701019A11430160006800F007000199B7
:1018E000884203D0FFE70120039043E0FFE702981E
:1018F0000078400700280CD5FFE741F20400C4F24D
:101900000200016821F4E061029AD268114301608B
:10191000FFE702980078000700280DD5FFE741F2A5
:101920000400C4F20200016821F46051029A1269B5
:1019300041EAC2010160FFE700F062F841F20401F0
:10194000C4F202010968C9B2090945F62212C0F6BB
:101950000002515CC84040F20401C2F2000108607C
:1019600040F20C00C2F200000068FFF72BFE0021DD
:101970000391FFE7039804B080BD000082B001909E
:10198000009101980F21016041F20400C4F20200AD
:10199000016801F00301019A5160016801F0F00152
:1019A000019A9160016801F4E061019AD1600068D8
:1019B00000F46050C0080199086142F20000C4F2CE
:1019C0000200006800F007000099086002B070474C
:1019D00040F20400C2F200000068704780B5FFF7D3
:1019E000F7FF41F20401C4F202010968C1F3C22108
:1019F00045F63212C0F60002515CC84080BD0000BE
:101A00008BB040F60E70C1F210000A9040F60A301A
:101A1000C0F60C50099040F20670C0F6081008900D
:101A200040F20230C0F20450079040F20120ADF8BD
:101A30001A0000200590049003900290019041F25A
:101A40000400C4F2020000680590059800F00C0044
:101A50000146002800913DD0FFE70098042804D0FB
:101A6000FFE70098082806D035E041F20020C0F2D8
:101A70007A00019035E00598C0F3834007A9085C1F
:101A800002909DF81600C007002818D0FFE741F229
:101A90000400C4F20200006800F400300DF11A01E5
:101AA00041EA504000780490029841F20021C0F2CF
:101AB0007A0148430499B0FBF1F0039007E00298E3
:101AC00040F60011C0F23D0148430390FFE7039840
:101AD000019006E0FFE741F20020C0F27A00019099
:101AE000FFE701980BB0704780B586B0049004986A
:101AF000002803D1FFE70120059020E30498007837
:101B0000C007002800F0AE80FFE741F20400C4F2F5
:101B10000200006800F00C00042813D0FFE741F237
:101B20000400C4F20200006800F00C0008281BD179
:101B3000FFE741F20400C4F202000068C00300287D
:101B400012D5FFE741F20000C4F2020000688003F2
:101B5000002808D5FFE704984068002803D1FFE774
:101B600001200590EBE27CE0FFE704984068B0F5C7
:101B7000803F09D1FFE741F20000C4F20200016892
:101B800041F48031016033E00498406800280DD1B1
:101B9000FFE741F20000C4F20200016821F4803145
:101BA0000160016821F48021016020E00498406810
:101BB000B0F5A02F0DD1FFE741F20000C4F2020002
:101BC000016841F480210160016841F480310160C5
:101BD0000CE041F20000C4F20200016821F48031FF
:101BE0000160016821F480210160FFE7FFE7FFE762
:101BF000FFE704984068002819D0FFE7FFF7B8FC1A
:101C00000390FFE741F20000C4F202000068800385
:101C100000280BD4FFE7FFF7ABFC0399401A6528B7
:101C200003D3FFE70320059089E2EBE718E0FFF715
:101C30009FFC0390FFE741F20000C4F2020000683D
:101C4000800300280BD5FFE7FFF792FC0399401AA9
:101C5000652803D3FFE70320059070E2EBE7FFE779
:101C6000FFE7FFE7049800788007002840F18B80A9
:101C7000FFE741F20400C4F20200006810F00C0F0C
:101C800013D0FFE741F20400C4F20200006800F044
:101C90000C00082828D1FFE741F20400C4F202003A
:101CA0000068C00300281FD4FFE741F20000C4F21F
:101CB000020000688007002808D5FFE70498006943
:101CC000012803D0FFE70120059038E241F200002F
:101CD000C4F20200016821F0F801049A526941EA55
:101CE000C2010160FFE74DE00498006900282AD096
:101CF000FFE70020C4F2422001210160FFF738FC19
:101D00000390FFE741F20000C4F202000068800780
:101D100000280BD4FFE7FFF72BFC0399401A032898
:101D200003D3FFE70320059009E2EBE741F200004F
:101D3000C4F20200016821F0F801049A526941EAF4
:101D4000C20101601DE00020C4F2422000210160B8
:101D5000FFF70EFC0390FFE741F20000C4F202001F
:101D60000068800700280BD5FFE7FFF701FC039907
:101D7000401A032803D3FFE703200590DFE1EBE7D8
:101D8000FFE7FFE7FFE7049800780007002847D542
:101D9000FFE704988069002822D0FFE740F28040E6
:101DA000C4F2422001210160FFF7E2FB0390FFE74C
:101DB00041F22400C4F202000068800700280BD41E
:101DC000FFE7FFF7D5FB0399401A032803D3FFE78A
:101DD00003200590B3E1EBE7012000F09BFF1EE03C
:101DE00040F28040C4F2422000210160FFF7C0FBB6
:101DF0000390FFE741F22400C4F20200006880076C
:101E000000280BD5FFE7FFF7B3FB0399401A03281F
:101E100003D3FFE70320059091E1EBE7FFE7FFE73E
:101E2000049800784007002840F1D480FFE70020A4
:101E3000019041F21C00C4F202000068C0000028BA
:101E400012D4FFE7FFE741F21C00C4F20200016870
:101E500041F080510160006800F0805000900098CF
:101E6000FFE701200190FFE747F20000C4F2000005
:101E70000068C005002821D4FFE747F20000C4F243
:101E80000000016841F480710160FFF771FB03906D
:101E9000FFE747F20000C4F200000068C005002818
:101EA0000BD4FFE7FFF764FB0399401A652803D3BF
:101EB000FFE70320059042E1EBE7FFE7FFE7049827
:101EC000C068012809D1FFE741F22000C4F20200F6
:101ED000016841F00101016032E00498C068002807
:101EE0000DD1FFE741F22000C4F20200016821F0A9
:101EF00001010160016821F0040101601FE0049804
:101F0000C06805280DD1FFE741F22000C4F20200AD
:101F1000016841F004010160016841F001010160C4
:101F20000CE041F22000C4F20200016821F001013E
:101F30000160016821F004010160FFE7FFE7FFE7AE
:101F4000FFE70498C06800281BD0FFE7FFF710FBED
:101F50000390FFE741F22000C4F20200006880070E
:101F600000280DD4FFE7FFF703FB0399401A41F265
:101F70008931884203D3FFE703200590DFE0E9E7DA
:101F80001AE0FFF7F5FA0390FFE741F22000C4F2F0
:101F900002000068800700280DD5FFE7FFF7E8FA88
:101FA0000399401A41F28931884203D3FFE70320A5
:101FB0000590C4E0E9E7FFE70198012809D1FFE7B0
:101FC00041F21C00C4F20200016821F0805101605E
:101FD000FFE7FFE70498C069002800F0AD80FFE745
:101FE00041F20400C4F20200006800F00C0008286E
:101FF0007ED0FFE70498C06902285AD1FFE760202D
:10200000C4F2422000210160FFF7B2FA0390FFE71B
:1020100041F20000C4F202000068800100280BD5E4
:10202000FFE7FFF7A5FA0399401A032803D3FFE758
:102030000320059083E0EBE70498006AB0F5803F49
:102040000CD1FFE741F20400C4F20200016821F460
:102050000031049A926811430160FFE741F20400E5
:10206000C4F20200016821F47411049A136A526ADE
:102070001A43114301606020C4F242200121016033
:10208000FFF776FA0390FFE741F20000C4F2020086
:102090000068800100280BD4FFE7FFF769FA039975
:1020A000401A032803D3FFE70320059047E0EBE73E
:1020B0001DE06020C4F2422000210160FFF758FAC1
:1020C0000390FFE741F20000C4F2020000688001C3
:1020D00000280BD5FFE7FFF74BFA0399401A0328B6
:1020E00003D3FFE70320059029E0EBE7FFE722E0B9
:1020F0000498C069012803D1FFE7012005901EE084
:1021000041F20400C4F2020000680290029800F458
:1021100080300499096A884208D1FFE7029800F4E8
:1021200070100499496A884203D0FFE701200590A6
:1021300005E0FFE7FFE7FFE700200590FFE70598D0
:1021400006B080BD81B0009001B0704781B00090B2
:1021500001B0704785B003900291FFE70398C06B10
:10216000012803D1FFE70220049056E003980121E3
:10217000C163FFE7FFE70398022101640398006849
:10218000406801900398006880680090019820F0F2
:10219000700001900298006801990843019001982D
:1021A0000399096848600398006842F60041C4F248
:1021B0000101884218D0FFE703980068B0F1804F12
:1021C00012D0FFE70398006840F20041C4F200011A
:1021D000884209D0FFE70398006840F60001C4F286
:1021E000000188420ED1FFE7009820F080000090A7
:1021F0000298406800990843009000980399096884
:102200008860FFE7039801210164FFE7039800213C
:10221000C163FFE700200490FFE7049805B0704712
:1022200080B584B002900298002803D1FFE7012016
:10223000039035E00298006C002807D1FFE7029870
:102240000021C163029800F02FF8FFE702980221F5
:102250000164029850F8041B01900846019901F0AE
:102260004FFA029801214166FFE70298012141647B
:10227000029881640298C16402980165FFE7FFE754
:10228000029801214165029881650298C165029812
:102290000166FFE702980121016400200390FFE737
:1022A000039804B080BD000080B584B0039003980B
:1022B0000068B0F1804F19D1FFE7FFE741F21C0041
:1022C000C4F20200016841F001010160006800F001
:1022D000010002900298FFE71C200F2100220090CD
:1022E000FFF704FA0098FFF7F9F919E0039800687E
:1022F00040F20041C4F20001884210D1FFE7FFE73D
:1023000041F21C00C4F20200016841F002010160C8
:10231000006800F0020001900198FFE7FFE7FFE787
:1023200004B080BD83B001900198006C012803D0F7
:10233000FFE7012002903FE001980221016401982B
:10234000006842F60041C4F20101884218D0FFE75C
:1023500001980068B0F1804F12D0FFE70198006843
:1023600040F20041C4F20001884209D0FFE7019821
:10237000006840F60001C4F20001884212D1FFE774
:1023800001980068806800F0070000900098062817
:1023900007D0FFE701980068016841F00101016082
:1023A000FFE706E001980068016841F00101016063
:1023B000FFE700200290FFE7029803B0704700009B
:1023C00083B001900198006C012803D0FFE7012041
:1023D000029045E001980221016401980068C168FB
:1023E00041F00101C1600198006842F60041C4F269
:1023F0000101884218D0FFE701980068B0F1804FD2
:1024000012D0FFE70198006840F20041C4F20001D9
:10241000884209D0FFE70198006840F60001C4F245
:102420000001884212D1FFE701980068806800F03F
:10243000070000900098062807D0FFE70198006881
:10244000016841F001010160FFE706E001980068C2
:10245000016841F001010160FFE700200290FFE701
:10246000029803B07047000081B00090FFE7009829
:102470000068006A41F21111084210D1FFE700988C
:102480000068006A40F24441084207D1FFE7009823
:102490000068016821F001010160FFE7FFE7FFE745
:1024A000009801210164002001B0704781B00090C4
:1024B00000980068C16821F00101C160FFE7009841
:1024C0000068006A41F21111084210D1FFE700983C
:1024D0000068006A40F24441084207D1FFE70098D3
:1024E0000068016821F001010160FFE7FFE7FFE7F5
:1024F000009801210164002001B0704780B58AB0C6
:1025000008900791FFE70898C06B012803D1FFE707
:1025100002200990B2E008980121C163FFE7FFE7BC
:10252000089802210164089800688068069006985F
:1025300020F077000690069820F47F4006900698D9
:10254000089909688860079800680028059000F0DD
:102550008280FFE7059810287DD0FFE705982028A6
:1025600079D0FFE70598302875D0FFE70598402817
:1025700061D0FFE7059850283DD0FFE70598602817
:1025800049D0FFE7059870280BD0FFE70598B0F514
:10259000805F05D0FFE70598B0F5005F19D061E0D6
:1025A00061E00898006807994A688B68C9680491D7
:1025B0001946049B01F01CF9089800688068069091
:1025C000069840F077000690069808990968886098
:1025D00049E00898006807994A688B68C9680391C0
:1025E0001946039B01F004F908980068816841F4DA
:1025F0008041816037E00898006807994A68C96897
:1026000002911146029A01F023F9089800685021BE
:1026100001F008F927E00898006807994A68C96836
:1026200001911146019A01F03BF908980068602178
:1026300001F0F8F817E00898006807994A68C96837
:1026400000911146009A01F003F9089800684021B2
:1026500001F0E8F807E0089800680799096801F0B8
:10266000E1F800E0FFE7089801210164FFE708981E
:102670000021C163FFE700200990FFE709980AB035
:1026800080BD000081B0009001B0704780B582B07D
:10269000019001980068006900F002000021B1EB90
:1026A000500F29D0FFE701980068C06800F00200D1
:1026B0000021B1EB500F1ED0FFE7019800686FF0CA
:1026C0000201016101980121C161019800688069DE
:1026D0008007002804D0FFE70198FFF7D3FF06E04A
:1026E000019800F015F9019800F016F9FFE701983C
:1026F0000021C161FFE7FFE701980068006900F071
:1027000004000021B1EB900F29D0FFE70198006889
:10271000C06800F004000021B1EB900F1ED0FFE76D
:10272000019800686FF00401016101980221C16104
:1027300001980068806910F4407F04D0FFE7019899
:10274000FFF7A0FF06E0019800F0E2F8019800F022
:10275000E3F8FFE701980021C161FFE7FFE7019877
:102760000068006900F008000021B1EBD00F29D00B
:10277000FFE701980068C06800F008000021B1EB95
:10278000D00F1ED0FFE7019800686FF008010161CB
:1027900001980421C16101980068C0698007002880
:1027A00004D0FFE70198FFF76DFF06E0019800F005
:1027B000AFF8019800F0B0F8FFE701980021C1617F
:1027C000FFE7FFE701980068006900F010000021B2
:1027D000B1EB101F29D0FFE701980068C06800F036
:1027E00010000021B1EB101F1ED0FFE70198006818
:1027F0006FF01001016101980821C1610198006822
:10280000C06910F4407F04D0FFE70198FFF73AFF5A
:1028100006E0019800F07CF8019800F07DF8FFE7F1
:1028200001980021C161FFE7FFE701980068006996
:10283000C007002811D0FFE701980068C068C007F2
:10284000002809D0FFE7019800686FF001010161DD
:10285000019800F065F8FFE7FFE70198006800695C
:10286000C0B20021B1EBD01F13D0FFE70198006880
:10287000C068C0B20021B1EBD01F09D0FFE70198BA
:1028800000686FF0800101610198FFF75BFCFFE7D2
:10289000FFE701980068006900F040000021B1EBFB
:1028A000901F14D0FFE701980068C06800F0400056
:1028B0000021B1EB901F09D0FFE7019800686FF08D
:1028C00040010161019800F04FF8FFE7FFE7019830
:1028D0000068006900F020000021B1EB501F14D007
:1028E000FFE701980068C06800F020000021B1EB0C
:1028F000501F09D0FFE7019800686FF020010161C7
:102900000198FFF723FCFFE7FFE702B080BD00005E
:1029100081B0009001B0704781B0009001B0704765
:1029200080B582B0019001980068B0F1804F0CD161
:10293000FFE740F24400C2F200000068002100916D
:10294000009A009B02F03AFAFFE70198006842F60D
:102950000041C4F20101884203D1FFE7FEF70EFEF9
:10296000FFE702B080BD000081B0009001B0704769
:10297000FFE7FEE780B540F29400C2F2000046F2A5
:102980000041C4F20001016010214160002181601A
:10299000C1604FF4602202614FF480124261816194
:1029A000C161016241628162C162FEF767F900287C
:1029B00003D0FFE7FDF7CEFCFFE780BD80B594B004
:1029C00000201390129011901090FFE741F2180030
:1029D000C4F20200016841F010010160006800F0DB
:1029E00010000F900F98FFE7FFE741F21800C4F2C4
:1029F0000200016841F020010160006800F0200041
:102A00000E900E98FFE7FFE741F21800C4F20200B3
:102A1000016841F004010160006800F004000D90BD
:102A20000D98FFE7FFE741F21800C4F202000168C9
:102A300041F008010160006800F008000C900C985B
:102A4000FFE741F20000C4F201004FF40051002200
:102A50000B900A910992FEF773FD40F60000C4F254
:102A60000100082108900791099AFEF769FD2020CE
:102A70000121089A06901046069B05911946059A71
:102A8000FEF75EFD40F60040C4F201004FF4404105
:102A90000490059AFEF754FD0A981090059911913B
:102AA000099A1292022313930DF1400C0B98614680
:102AB0000393CDF808C0FEF77FFB079810900599A7
:102AC0001191099A1292039B139308980299FEF7A9
:102AD00073FB0698109011211191099A1292039B91
:102AE00013930898DDF808C001916146FEF764FB76
:102AF0004FF4705010900998119012900498029918
:102B0000FEF75AFB4FF480401090059811900999F8
:102B10001291039A139204980299FEF74DFB4FF419
:102B2000004010900198119009991291039A139204
:102B300004980299FEF740FB14B080BD80B586B0C2
:102B4000002005900490039002900190009040F2C4
:102B50003411C2F200014FF080420A6043F63F0296
:102B60004A6088604CF24F32CA600861886108464A
:102B7000FFF756FB002803D0FFE7FDF7EBFBFFE76D
:102B80004FF48050029040F23410C2F2000002A9CB
:102B9000FFF7B4FC002803D0FFE7FDF7DBFBFFE7FE
:102BA00000200090019040F23410C2F2000069460B
:102BB000FFF7D0FA002803D0FFE7FDF7CBFBFFE7D4
:102BC00006B080BD80B586B00020059004900390CB
:102BD00002900190009040F29C11C2F2000140F27C
:102BE0000042C4F200020A6043F63F024A60886075
:102BF0004CF24F32CA60086188610846FFF710FB4B
:102C0000002803D0FFE7FDF7A5FBFFE74FF4805056
:102C1000029040F29C10C2F2000002A9FFF76EFC85
:102C2000002803D0FFE7FDF795FBFFE700200090A9
:102C3000019040F29C10C2F200006946FFF78AFA48
:102C4000002803D0FFE7FDF785FBFFE706B080BD56
:102C5000FFE7FEE7FFE7FEE788B0079006910592E1
:102C6000079800F0070004900498C0F107000528B9
:102C700003D3FFE70420019004E00498C0F10700AB
:102C80000190FFE70198039004980430062803D8C8
:102C9000FFE70020009003E0049803380090FFE76E
:102CA0000098029006980399012202FA01F1013975
:102CB000084002998840059B02FA01F10139194048
:102CC000084308B07047000000000000000000004A
:102CD000EFF30980BFF36F8F0D4B1A6820E9F00FF7
:102CE00010602DE908404FF0BF0080F3118801F01B
:102CF0007DFF4FF0000080F31188BDE8084019689F
:102D00000868B0E8F00F80F30988BFF36F8F704751
:102D10000C02002082B00190019840F20401C2F23E
:102D200000010968C90844F6D352C1F26202A1FB4E
:102D30000212920950430090FFE700BFFFE700989E
:102D4000411E00910028F8D1FFE702B07047000053
:102D500080B540F60040C4F201004FF48051FEF708
:102D6000C3FB40F26401C2F20001887580BD00001F
:102D7000074B19680868B0E8F00F80F30988BFF3C3
:102D80006F8F4FF0000080F311884EF00D0E7047EA
:102D90000C02002080B582B040F23410C2F2000074
:102DA0000190FFF783FB01990A6800235362FFE754
:102DB00040F26400C2F20000016840F23412C2F234
:102DC00000021368D9620068D060FFE740F2341057
:102DD000C2F2000001686FF001020A61FFF7F0FA29
:102DE00040F60001C4F201012022002300900846B1
:102DF00011461A46FEF7A4FB02B080BD80B588B02C
:102E000007900020072101F07DFE02F021FB0690D3
:102E1000FFE740F60040C4F201004FF48061FEF786
:102E200063FB40F26401C2F200018874887C0128CF
:102E30000FD1FFE740F26400C2F20000407C00289E
:102E400007D1FFE740F26400C2F2000000210174E4
:102E5000FFE740F26400C2F20000007C00282AD1A3
:102E6000FFE740F26400C2F20000C07C012822D1DA
:102E7000FFE740F22900C2F20000007801280DD1DE
:102E8000FFE740F22900C2F200000021017040F289
:102E90006400C2F20000012101740BE040F2400026
:102EA000C2F20000006800210591059A059B01F01F
:102EB00085FFFFE79CE040F26400C2F20000C07CA6
:102EC00002280ED1FFE740F26400C2F20000007C4D
:102ED000002805D1FFE700F08DFB00F067FAFFE75F
:102EE00085E040F26400C2F20000C07C03282CD1CF
:102EF000FFE740F26400C2F20000807C002824D189
:102F0000FFE740F26400C2F20000407C00281CD1C0
:102F1000FFE740F29C10C2F20000FFF703FA40F214
:102F20006401C2F20001CA7C0A750422CA7440F22C
:102F30004001C2F2000109680022049008461146CF
:102F40000392039B01F03AFF50E040F26400C2F2AA
:102F50000000C07C042814D1FFE740F26400C2F2F4
:102F60000000807C00280CD1FFE740F24000C2F254
:102F70000000006800210291029A029B01F01EFFEE
:102F800033E040F26400C2F20000C07C04282AD181
:102F9000FFE740F26400C2F20000807C012822D1E9
:102FA000FFE740F29C10C2F200000190FFF75CFACC
:102FB00001990A680023536240F26402C2F20002DF
:102FC000127D032A07D1FFE740F26400C2F200003D
:102FD0000321C17406E040F26400C2F20000052142
:102FE000C174FFE700E0FFE7FFE7FFE7FFE7FFE768
:102FF00040F26400C2F20000817C4174FFF7A8FE39
:10300000FDF70AF906A8052101F0D4FC01E700004C
:1030100080B588B040F28C00C2F20000694648607A
:103020000320086043F29111C0F6000145F64712F3
:10303000C0F600024FF4FA734FF0000C07900846F8
:1030400011461A4606936346CDF814C002F08EF975
:1030500040F29001C2F200016A4651600799116086
:1030600043F2ED02C0F6000245F64E11C0F6000133
:1030700004901046069A059B02F078F940F284010C
:10308000C2F200016A4651600521116043F23D41E0
:10309000C0F6000145F65512C0F60002039008463E
:1030A0001146069A059B02F061F940F28801C2F2CE
:1030B00000016A4651600799116042F6FD52C0F660
:1030C000000245F65C11C0F6000102901046069A17
:1030D000059B02F04BF908B080BD000080B500F000
:1030E00065F9FDF757F8FFF793FF80BD80B584B011
:1030F00003900020032101F005FD02F0A9F90290E0
:10310000FFE740F24400C2F2000000684FF0FF31D8
:1031100002F02EF8012834D1FFE740F26400C2F239
:103120000000C17D007EB1EB400F12DBFFE740F2F3
:103130006400C2F200000521C17440F24000C2F2F6
:103140000000006800210191019A019B01F036FE08
:103150000FE040F26400C2F20000C07DC00700280A
:1031600003D1FFE700F01CFA02E0FFF713FEFFE7D0
:10317000FFE740F26400C2F20000C17D0131C17579
:1031800000E0FFE702A8052101F014FCB9E7000008
:1031900080B58AB00990002001210690059101F0C8
:1031A000B1FC03200599049008460699049A01F0A1
:1031B00087FD40F24401C2F20001086005980699BB
:1031C000049A01F07DFD40F24001C2F20001086066
:1031D00002F03EF90890FFE740F24000C2F2000022
:1031E00000684FF0FF3101F0C3FF012840F0D880A4
:1031F000FFE741F20000C4F201004FF40051FEF776
:1032000089F940F26400C2F20000007F00282FD14B
:10321000FFE740F26400C2F20000C07C012827D121
:10322000FFE700208DF81F00FFE79DF81F00012831
:1032300009DCFFE7FDF75CF8FFE79DF81F000130B0
:103240008DF81F00F1E740F26400C2F20000007F39
:1032500001280CD0FFE740F26400C2F20000012117
:10326000017400F11C027320FCF7BCFFFFE7FFE7CD
:1032700040F26400C2F20000C07C0138014604281C
:10328000039100F28C800399DFE801F0031A374BB9
:103290003A0040F26400C2F20000007F01280DD124
:1032A000FFE7FFF777FD00F031FB40F26400C2F268
:1032B00000000221C1740121017400E0FFE76EE00B
:1032C00040F26400C2F20000B0F90E108089814221
:1032D00011DBFFE700F08EF940F26400C2F200005B
:1032E0000321C17440F24400C2F2000000680A21C8
:1032F00001F03EFF00E0FFE751E000F07BF94EE017
:1033000000F078F9FCF7E0FF00F0F4FA40F2640016
:10331000C2F2000000F1170272200121FCF762FFE7
:103320003DE040F29C10C2F200000068406A40F2AA
:103330006401C2F20001896888422FD3FFE740F29E
:103340006400C2F20000417EC07E814209DDFFE7D9
:1033500040F26400C2F20000417EC07E81421BDD6B
:10336000FFE740F29C10C2F2000001686FF001021A
:103370000A610290FFF778F802990A680023536205
:103380000190FCF7CDFF00F011F840F22900C2F2E5
:1033900000000121017000E0FFE7FFE7FFE7FFE722
:1033A00008A8052101F006FB16E7000080B584B0EF
:1033B00040F26400C2F20000012101744174817482
:1033C000C1740022827740F60043C4F201034FF437
:1033D000805C039018460291614601920093FEF7CB
:1033E00083F8039988754FF400410098FEF77CF844
:1033F000039948754FF4966088810298087648775B
:10340000019A0A77CA754FF6FF73CB810A23CB76F0
:1034100043F697230B6041F287334B6042F20F7300
:103420008B6000F067FA40F23410C2F200000068CE
:103430006FF00101016104B080BD000080B586B06D
:1034400005900020042101F05DFB02F001F80490DA
:10345000FFE740F22800C2F20000007800280ED1F9
:10346000FFE740F60040C4F201004FF40041FEF7D0
:103470003BF840F26401C2F200014875FFE740F2F8
:103480000000C2F20000007840F26401C2F20001C4
:10349000497D884251D0FFE740F26400C2F200004B
:1034A000407D01460028039125D0FFE703980128BD
:1034B00041D1FFE700F092F840F26400C2F2000050
:1034C000C07C032808D1FFE740F26400C2F200008C
:1034D000C07C042803D1FFE7FFF768FF02E000F09B
:1034E00015FAFFE740F26400C2F2000001214177C3
:1034F0000021817720E000F07DF8FCF7E5FE00F088
:10350000F9F940F26400C2F2000000214177807FA7
:1035100001280FD0FFE740F26400C2F20000807F74
:10352000032807D0FFE740F26400C2F20000022146
:103530008177FFE700E0FFE7FFE740F26400C2F2B7
:10354000000000F11D027021012302900846194677
:103550000193FCF747FE029800F11E0271200199C9
:10356000FCF740FE40F22800C2F20000007800287C
:1035700007D0FFE740F22800C2F2000000210170EE
:10358000FFE740F26400C2F20000407D40F200011B
:10359000C2F20001087004A8022101F00BFA58E7FA
:1035A00080B500F027F8FFE740F26400C2F20000A7
:1035B000416840F23412C2F200021368D9624068D6
:1035C000D060FFE740F23410C2F2000001686FF0F3
:1035D00001020A61FEF7F4FE80BD000080B540F6EE
:1035E0000040C4F201004FF400410122FDF7A8FFA2
:1035F00080BD000080B582B040F60000C4F201003A
:1036000020210122FDF79CFF40F23410C2F200009D
:103610000190FEF74BFF01990A680023536202B044
:1036200080BD000080B582B04FF0BF0080F31188EC
:10363000BFF36F8FBFF34F8F009001F013FF00288F
:1036400008D0FFE74EF60450CEF200004FF0805154
:103650000160FFE700200190019880F3118802B01B
:1036600080BD000080B592B008A828210290FCF728
:1036700072FD0020079006900590049003900121B0
:1036800008914FF4803209920A900C9102200F9019
:1036900010924FF4E01011900298FEF725FA0028DE
:1036A00003D0FFE7FCF756FEFFE70F200390022050
:1036B0000490002105914FF480620692079103A9BE
:1036C000019008460199FEF735F8002803D0FFE77E
:1036D000FCF740FEFFE712B080BD0000704700001D
:1036E00080B540F2CC00C2F20000FEF7CFFF80BDF3
:1036F00080B540F23410C2F20000FEF7C7FF80BD73
:1037000083B002900191029800680090029842F6FE
:103710000041C4F20101884215D0FFE70298B0F1E0
:10372000804F10D0FFE7029840F20041C4F2000140
:10373000884208D0FFE7029840F60001C4F2000179
:1037400088420AD1FFE7009820F0700000900198AD
:103750004068009908430090FFE7029842F6004154
:10376000C4F20101884215D0FFE70298B0F1804F02
:1037700010D0FFE7029840F20041C4F200018842F5
:1037800008D0FFE7029840F60001C4F20001884229
:103790000AD1FFE7009820F4407000900198C068BB
:1037A000009908430090FFE7009820F080000199FD
:1037B0004969084300900098029908600198806860
:1037C0000299C8620198006802998862029842F6DC
:1037D0000041C4F20101884205D1FFE70198006968
:1037E00002990863FFE702980121416103B0704725
:1037F00085B0049003910292019304988068009030
:10380000009820F47F40009003980299019A41EAC1
:1038100002210843009908430090009804998860A9
:1038200005B0704783B002900191029880680090C3
:10383000009820F07000009001980099084340F033
:103840000700009000980299886003B0704700005C
:1038500085B00490039102920498006A0090049845
:10386000016A21F0010101620498806901900198C8
:1038700020F0F00001900298019941EA00100190B7
:10388000009820F00A0000900398009908430090E7
:1038900001980499886100980499086205B07047FE
:1038A00085B00490039102920498016A21F01001FE
:1038B00001620498806901900498006A0090019860
:1038C00020F4704001900298019941EA0030019083
:1038D000009820F0A00000900398009941EA0010A1
:1038E000009001980499886100980499086205B0D5
:1038F0007047000080B540F60040C4F201004FF46C
:1039000080410122FDF71CFE80BD000080B540F61D
:103910000040C4F201004FF480410022FDF710FE88
:1039200080BD000080B540F29400C2F20000FCF7B8
:10393000A3FF80BD80B540F29400C2F20000FCF706
:103940009BFF80BDFFE7FEE781B000900098002854
:103950000ED4FFE7009800F01F01012202FA01F1E6
:1039600040094EF20012CEF2000242F82010FFE7AA
:1039700001B070474EF60C50CEF200000068C0F364
:103980000220704782B0019000910198002809D46C
:10399000FFE70098000101994EF20042CEF20002CA
:1039A00088540AE000980001019901F00F014EF6D9
:1039B0001452CEF200028854FFE702B070470000B4
:1039C00083B00290029800F0070000904EF60C5071
:1039D000CEF200000168019101994FF6FF021140FB
:1039E00001910199009A41EA02210022C0F2FA52A3
:1039F000114301910199016003B0704780B582B015
:103A000000200190FDF7C8FD0090FFF72BFEFEF7A8
:103A1000D5FFFFF793F8FEF7ADFFFFF7D3F8FFF7F9
:103A20005DFB01F08BF8FFE7FEE7000080B584B096
:103A30000390029144F2A470C2F20000006800906A
:103A400040F20C20C2F200000068043000F09CFE3E
:103A5000002812D1FFE740F20C20C2F200000068FB
:103A6000C06A012101FA00F044F2FC61C2F20001D7
:103A70000A6822EA0000086000E0FFE703980130CE
:103A8000002811D1FFE7029800280DD0FFE740F28F
:103A90000C20C2F200000068011D44F27C70C2F2EA
:103AA000000000F0EBFE3DE000980399084401900F
:103AB000019840F20C21C2F20001096848600198A7
:103AC000009988420ED2FFE740F21820C2F20000AF
:103AD000006840F20C21C2F200010968043100F0D4
:103AE00097FE1EE040F21420C2F20000006840F28F
:103AF0000C21C2F200010968043100F089FE01982E
:103B000044F25871C2F200010968884207D2FFE707
:103B1000019844F25871C2F20001086000E0FFE72A
:103B2000FFE7FFE704B080BD80B582B0019000F0F0
:103B3000C3FE44F2EC60C2F2000001680131016092
:103B400040F20C20C2F200000068002813D1FFE709
:103B5000019840F20C21C2F20001086044F2EC60CE
:103B6000C2F200000068012803D1FFE700F050FA1C
:103B700000E0FFE71DE044F27870C2F20000006848
:103B8000002814D1FFE740F20C20C2F200000068C8
:103B9000C06A0199C96A884207D8FFE7019840F2D4
:103BA0000C21C2F20001086000E0FFE700E0FFE73F
:103BB000FFE744F2F860C2F20000016801310160E1
:103BC0000068019948640198C06A012101FA00F077
:103BD00044F2FC61C2F200010A68104308600198D7
:103BE000C16A01EB810140F22022C2F2000202EB25
:103BF0008101043000900846009900F03FFE00F07B
:103C000073FE44F27870C2F200000068002819D0F8
:103C1000FFE740F20C20C2F200000068C06A019980
:103C2000C96A88420CD2FFE74EF60450CEF200007B
:103C30004FF080510160BFF34F8FBFF36F8F00E0F3
:103C4000FFE700E0FFE702B080BD000080B582B072
:103C500000F032FE44F2A870C2F2000000680028B2
:103C600025D1FFE744F20070C2F20000019000F09D
:103C7000AFFD44F21470C2F20000009000F0A8FD05
:103C800040F21020C2F200000199016040F21C20B5
:103C9000C2F20000009A02600A201021002201F006
:103CA0000FF844F2A871C2F20001086000E0FFE7DB
:103CB00000F01AFE02B080BD80B582B0FFE744F28A
:103CC000F060C2F200000068002822D0FFE700F098
:103CD000F3FD44F29070C2F20000C068C068019029
:103CE0000198043000F050FD44F2EC61C2F2000192
:103CF0000A68013A0A6044F2F061C2F200010A68FF
:103D0000013A0A60009000F0EFFD019800F08CF895
:103D1000D5E702B080BD000080B584B00390029169
:103D20000398006C00281AD0FFE70398C168026C62
:103D30001144C16003988168C068884204D3FFE7DA
:103D400003980168C16000E0FFE702980399CA6820
:103D5000096C01911146019AFCF7E4F9FFE704B000
:103D600080BD000080B588B00790069105920020C4
:103D700004900798806B03900798006C002801D18D
:103D8000FFE749E0059800281AD1FFE70798069950
:103D90004268006C02901046029AFCF7C3F907993A
:103DA0004A680B6C1A444A6007994A6889688A42D3
:103DB00004D3FFE707980168416000E0FFE72AE0CD
:103DC00007980699C268006C01901046019AFCF7AA
:103DD000A9F90799CA680B6CD21ACA6007990A68D0
:103DE000C968914206D2FFE707988168026C891A78
:103DF000C16000E0FFE7059802280AD1FFE70398B9
:103E0000002804D0FFE703980138039000E0FFE7A3
:103E100000E0FFE7FFE7FFE70398013007998863B9
:103E2000049808B080BD000080B582B00190019870
:103E3000006B00F06DFD019800F06AFD02B080BDDE
:103E400082B0019040F21020C2F2000000680068C9
:103E5000B0FA80F0400901990860019800680028D4
:103E600009D1FFE740F21020C2F200000068C068EC
:103E70000068009002E000200090FFE7009802B088
:103E80007047000080B582B00190FFE7FFF714FF94
:103E900040F22020C2F20000006802280CD3FFE7A5
:103EA0004EF60450CEF200004FF080510160BFF397
:103EB0004F8FBFF36F8F00E0FFE7E7E780B584B077
:103EC000DDF818C09E460390029101928DF80330F0
:103ED0000298002803D1FFE70698006003E00198EC
:103EE00006990860FFE703980699C8630298069947
:103EF00008640698012100F00FFF9DF80310069A50
:103F000082F84C1004B080BDB0B58AB0DDF844C072
:103F1000DDF840E00F9C0E9D0990089107920693F2
:103F20001098006B07998900A522CDF80CC0CDF838
:103F300008E001940095FCF707F91098006B0799C9
:103F400000EB810004380590059820F007000590EB
:103F50000898002820D0FFE700200490FFE704988D
:103F60000F2814D8FFE708980499405C109A114470
:103F700081F8340008980499405C002801D1FFE7DB
:103F800005E0FFE7FFE7049801300490E7E71098A9
:103F9000002180F8431004E01098002180F83410CC
:103FA000FFE70E980A2803D3FFE709200E9000E0F0
:103FB000FFE70E981099C8621098043000F020FCBA
:103FC0001098183000F01CFC109800610E98C0F199
:103FD0000A00109988611098406210980021C1640D
:103FE00010980165109880F8541005980999069A60
:103FF00000F0A2FB109908600F98002804D0FFE79A
:1040000010980F99086000E0FFE70AB0B0BD00000B
:1040100080B584B000200390FFE70398092810D8EA
:10402000FFE7039800EB800040F22021C2F200017C
:1040300001EB800000F0CCFBFFE703980130039018
:10404000EBE744F22870C2F20000029000F0C0FBDF
:1040500044F23C70C2F20000019000F0B9FB44F25F
:104060006470C2F2000000F0B3FB44F29070C2F240
:10407000000000F0ADFB44F27C70C2F2000000F0E2
:10408000A7FB40F21420C2F200000299016040F246
:104090001820C2F20000019A026004B080BD000046
:1040A00080B586B0059004910392029300200190A0
:1040B000049805994860059800610498039988421E
:1040C00016D8FFE703980299401A05998969884232
:1040D00003D3FFE70120019009E040F21C20C2F267
:1040E000000000680599043100F092FBFFE717E03B
:1040F00003980299884208D2FFE7049802998842FF
:1041000003D3FFE70120019009E040F21020C2F242
:10411000000000680599043100F07AFBFFE7FFE733
:10412000019806B080BD000080B582B0019000F01B
:10413000C3FB0198806B002803D1FFE701200090AA
:1041400002E000200090FFE700F0CEFB009802B0F4
:1041500080BD000080B582B0019000F0ADFB0198F9
:10416000806B0199C96B884203D1FFE70120009061
:1041700002E000200090FFE700F0B6FB009802B0DC
:1041800080BD000006480068006880F3088862B6B9
:1041900061B6BFF34F8FBFF36F8F00DF00BF00BF6B
:1041A00008ED00E080B586B00590049140F2102043
:1041B000C2F200000068C068C06802900298043033
:1041C00000F0E2FA029991F82810490700291AD55F
:1041D000FFE70298059982690A44049B0191114600
:1041E0001A46019BFFF75CFF00280AD0FFE7029800
:1041F000059A694600230B60194601F037FB0390CE
:1042000000E0FFE707E0029890F8281001F0FE01B7
:1042100080F82810FFE70298016A884706B080BD41
:1042200080B590B0FFE744F2A870C2F200000068C9
:104230000CA9002200F0E6FE002800F09B80FFE7BA
:104240000C98B0F1FF3F0FDCFFE70CA8043007909B
:10425000079801684268806806901046069A0591A2
:104260001146059B984700E0FFE70C98002800F1F5
:104270008080FFE70E980B900B984069002805D0CE
:10428000FFE70B98043000F07FFA00E0FFE70AA890
:1042900000F0EAF808900C980928049067D804996F
:1042A000DFE801F0050505343C510505343C0B9869
:1042B00090F8281041F0010180F828100B980D9912
:1042C00082690A44089B039111461A46039BFFF733
:1042D000E7FE002818D0FFE70B98016A88470B9883
:1042E00090F82800400700280CD5FFE70B980D999F
:1042F00082690A44694600230B60194601F0B6FA48
:10430000099000E0FFE700E0FFE731E00B9890F84C
:10431000281001F0FE0180F8281029E00B9890F891
:10432000281041F0010180F828100D980B99886140
:104330000B98089982690A4402911146029A029BDD
:10434000FFF7AEFE14E00B9890F8280080070028D5
:1043500004D4FFE70B9800F0DBFA07E00B9890F825
:10436000281001F0FE0180F82810FFE700E0FFE7C9
:10437000FFE758E710B080BD80B586B00590049186
:1043800000F02CFC02A800F06FF8039002980028BF
:1043900041D1FFE7049800280FD1FFE70598039962
:1043A00088420AD8FFE701F083F90599039A019042
:1043B00008461146FFF7F6FE2CE0049800280BD0C3
:1043C000FFE740F21C20C2F2000000680068B0FA6B
:1043D00080F040090490FFE744F2A870C2F20000A8
:1043E00000680599039A891A049A00F0ADFA01F061
:1043F0005FF900280CD1FFE74EF60450CEF2000022
:104400004FF080510160BFF34F8FBFF36F8F00E01B
:10441000FFE7FFE702E001F04BF9FFE706B080BDE0
:1044200081B040F21420C2F2000000680068002849
:1044300008D1FFE744F25870C2F200004FF0FF319C
:1044400001600FE040F21420C2F200000068C06872
:10445000C06800900098406844F25871C2F20001B0
:104460000860FFE701B0704780B582B0019000F0AE
:10447000EFFF0090009840F20421C2F200010968A9
:10448000884206D2FFE700F011F80198012101608F
:1044900003E0019800210160FFE7009840F2042149
:1044A000C2F200010860009802B080BD80B588B0FB
:1044B000FFE740F21020C2F2000000680068002808
:1044C00042D0FFE740F21020C2F200000168C96844
:1044D000096807910068C068C068049004980430B7
:1044E00000F052F904990A6A02900846904704982D
:1044F00090F828004007002824D5FFE70798049982
:104500008969084406900698079988420FD9FFE701
:104510000698049948600498006140F21020C2F2A5
:10452000000000680499043100F072F909E0049871
:10453000079A694600230B60194601F097F903902A
:10454000FFE700E0FFE7B4E740F21020C2F200000E
:104550000168059140F21C21C2F200010A68026064
:104560000598086008B080BD82B0002000904FF030
:10457000BF0080F31188BFF36F8FBFF34F8F01909F
:10458000FFE70098002801D1FFE7FAE702B0704783
:1045900080B584B00390FFE701A8FFF751FC0290BB
:1045A00002980199FFF7E8FEFFF73AFEF4E70000F2
:1045B00080B582B0019000F07FF9019890F8450035
:1045C0008DF80300FFE79DF90300012818DBFFE7E2
:1045D0000198406A00280CD0FFE70198243001F0D0
:1045E00011F8002803D0FFE700F054FA00E0FFE7DD
:1045F00000E005E09DF8030001388DF80300E2E7D4
:104600000198FF2180F8451000F06EF900F054F990
:10461000019890F844008DF80200FFE79DF9020030
:10462000012818DBFFE701980069002811D0FFE797
:104630000198103000F0E6FF002803D0FFE700F0FB
:1046400029FA00E0FFE79DF8020001388DF802002A
:1046500000E000E0E2E70198FF2180F8441000F05C
:1046600043F902B080BD000080B584B00390002003
:1046700002909DF80C004007002813D0FFE7039834
:1046800000F00701411A0831814207D9FFE703987A
:1046900000F00701401A0830039002E00020039068
:1046A000FFE7FFE700F09AFA40F20820C2F20000AC
:1046B000006800280DD1FFE740F2E820C2F20000B8
:1046C000073020F0070040F20821C2F20001086024
:1046D000FFE70398002827D0FFE744F25470C2F2A6
:1046E000000000680399084444F2F73188421BD85F
:1046F000FFE744F25470C2F20000006803990144DD
:10470000814211D9FFE740F20820C2F200000068A0
:1047100044F25471C2F200010A68104402900398F6
:104720000A6810440860FFE700F0C2FF0299019098
:10473000084604B080BD000083B002900191009251
:1047400002980438029002984FF08071016002983C
:1047500004380290019820F0010002990860029844
:1047600004380290029844F26951C0F600010160D9
:104770000298143802900098029908600298203834
:104780000290029803B0704782B0019001980069CE
:10479000009001984168806888600198416880684D
:1047A0004160009840680199884205D1FFE701986F
:1047B00080680099486000E0FFE7019800210161EE
:1047C00000980168013901600098006802B07047E4
:1047D00081B00090009800F10801416000984FF00E
:1047E000FF318160009800F10801C160009800F17C
:1047F0000801016100980021016001B070470000CC
:1048000081B0009000980021016101B07047000064
:1048100084B00390029102980068009000980130E3
:10482000002804D1FFE703980069019010E0039885
:1048300008300190FFE701984068006800998842BD
:1048400005D8FFE7FFE7019840680190F3E7FFE72D
:104850000198406802994860029841688860019810
:10486000029988600298019948600398029908614A
:10487000039801680131016004B0704783B0029071
:104880000191029840680090009801994860009852
:10489000806801998860019800998968486001984A
:1048A00000998860029801990861029801680131B5
:1048B000016003B07047000081B04FF0BF0080F38B
:1048C0001188BFF36F8FBFF34F8F009040F210003D
:1048D000C2F200000168013101600068012801D1C5
:1048E000FFE7FFE701B0704781B040F21000C2F26D
:1048F00000000168013901600068002806D1FFE767
:1049000000200090009880F31188FFE701B0704705
:1049100081B0009001B070474EF21000CEF200005E
:10492000002101604EF21802CEF2000211604EF238
:104930001401CEF2000147F63F62C0F205020A60A0
:10494000072101607047000080B584B00390029198
:10495000019203980090FFF7AFFF009890F9440090
:104960000130002805D1FFE70098002180F84410AD
:10497000FFE7009890F945000130002805D1FFE7D6
:104980000098002180F84510FFE7FFF7ADFF009881
:10499000806B002807D1FFE7009824300299019A24
:1049A00000F094F800E0FFE70098FFF701FE04B084
:1049B00080BD000080B586B0059004910020019074
:1049C00000F00CF944F2A470C2F2000000680090FC
:1049D00005980068049908440390009805990968AF
:1049E000884210D2FFE7039805990968884208D2E7
:1049F000FFE703980099884203D9FFE7012001905F
:104A000000E0FFE70FE0039805990968884205D3A5
:104A1000FFE703980099884203D9FFE7012001903E
:104A200000E0FFE7FFE70398059908600198002878
:104A300007D0FFE703980099401A0021FEF7F6FF20
:104A400000E0FFE700F034FE0290029800280CD14D
:104A5000FFE74EF60450CEF200004FF080510160A7
:104A6000BFF34F8FBFF36F8F00E0FFE706B080BD4D
:104A700081B0009044F25C70C2F2000000680099BE
:104A8000086044F2A470C2F2000000680099486017
:104A900001B0704744F2B070C2F200000121016021
:104AA0007047000080B582B001900091019840F2FB
:104AB0000C21C2F2000109681831FFF7A9FE009825
:104AC0000121FEF7B3FF02B080BD000080B584B0C5
:104AD000039002910192039840F20C21C2F200016E
:104AE00009681831FFF7CAFE0198002804D0FFE7D3
:104AF0004FF0FF300290FFE702980199FEF796FF12
:104B000004B080BD80B584B0039002910398002862
:104B100007D1FFE740F20C20C2F2000000680190CC
:104B200002E003980190FFE7FFF7C6FE02980199A3
:104B3000C864FFF7D9FE04B080BD000080B586B020
:104B400044F25070C2F200006946486000200860DC
:104B500043F68561C0F6000145F63A12C0F6000240
:104B600080230390084611461A46039B00F0FEFB83
:104B700004900498012804D1FFE700F04DFE049052
:104B800000E0FFE70498012824D1FFE74FF0BF00C1
:104B900080F31188BFF36F8FBFF34F8F059044F2FE
:104BA0005870C2F200004FF0FF31016044F278709B
:104BB000C2F200000121016044F2A470C2F20000C0
:104BC0000021016000F05CF8002801D0FFE700E060
:104BD000FFE700E0FFE706B080BD000044F2F460AC
:104BE000C2F20000016801310160704784B044F2F4
:104BF000F460C2F200000068002807D0FFE744F22A
:104C0000B070C2F200000121016037E044F2B070E0
:104C1000C2F200000021016044F2FC60C2F2000018
:104C2000006803900398B0FA80F08DF80B009DF8AF
:104C30000B00C0F11F000190019800EB800040F2D2
:104C40002021C2F2000101EB800000900098416831
:104C500049684160009841680830814205D1FFE70A
:104C60000098416849684160FFE700984068C06863
:104C700040F20C21C2F200010860FFE704B0704767
:104C800080B582B04EF62050CEF20000016841F4AB
:104C90007F010160016841F07F410160FFF73CFE48
:104CA00040F21000C2F20000002101600191FFF704
:104CB00069FAFFF79BFFFFF757FC019802B080BD30
:104CC00080B588B01346079006918DF81720079895
:104CD000069948430390039850300193FFF7C4FCB2
:104CE00004900498002812D0FFE7049802900298DC
:104CF0005030029007980699029A9DF81730DDF817
:104D000010C0EE46CEF800C0FFF7D8F800E0FFE78D
:104D1000049808B080BD000080B584B00390029173
:104D200003980190FFF7C8FD01980168C26B036CFE
:104D300002FB0311816001980021816301980168E1
:104D4000416001980168C26B036C013A02FB0311D8
:104D5000C1600198FF2180F84410019880F8451047
:104D6000029800281CD1FFE701980069002815D09F
:104D7000FFE70198103000F045FC00280CD0FFE759
:104D80004EF60450CEF200004FF080510160BFF3A8
:104D90004F8FBFF36F8F00E0FFE700E0FFE708E011
:104DA00001981030FFF714FD01982430FFF710FD33
:104DB000FFE7FFF799FD012004B080BD80B58AB000
:104DC000089007910692059300200490089800909F
:104DD000FFE7FFF771FD0098806B0099C96B88426F
:104DE00004D3FFE70598022837D1FFE70098079919
:104DF000059AFEF7B7FF03900098406A002815D087
:104E0000FFE70098243000F0FDFB00280CD0FFE7FE
:104E10004EF60450CEF200004FF080510160BFF317
:104E20004F8FBFF36F8F00E0FFE711E0039800287A
:104E30000CD0FFE74EF60450CEF200004FF0805148
:104E40000160BFF34F8FBFF36F8F00E0FFE7FFE715
:104E5000FFF74AFD012009906CE00698002805D173
:104E6000FFE7FFF741FD0020099063E00498002868
:104E700006D1FFE701A8FFF7FBFD0120049000E049
:104E8000FFE7FFE7FFE7FFF72FFDFFF7A7FEFFF7BD
:104E900013FD009890F944000130002805D1FFE788
:104EA0000098002180F84410FFE7009890F9450031
:104EB0000130002805D1FFE70098002180F8451057
:104EC000FFE7FFF711FD01A806A900F003FA00288B
:104ED00027D1FFE70098FFF73DF900281AD0FFE738
:104EE000009810300699FFF7DDFD0098FFF760FB92
:104EF00000F0DEFB00280CD1FFE74EF60450CEF2A6
:104F000000004FF080510160BFF34F8FBFF36F8FF0
:104F1000FFE705E00098FFF74BFB00F0C9FBFFE758
:104F200007E00098FFF744FB00F0C2FB0021099165
:104F300000E04EE709980AB080BD000080B58CB053
:104F4000089007910692059308980290EFF311805C
:104F50004FF0BF0181F31188BFF36F8FBFF34F8F05
:104F60000A9009910A9803900298806B0299C96B84
:104F7000884204D3FFE70598022837D1FFE702985B
:104F800090F845008DF807000298806B0090029819
:104F90000799059AFEF7E6FE9DF9071001310029F1
:104FA0001AD1FFE70298406A002813D0FFE7029861
:104FB000243000F027FB00280AD0FFE706980028DD
:104FC00004D0FFE706980121016000E0FFE700E060
:104FD000FFE700E0FFE706E09DF8070001300299D7
:104FE00081F84500FFE70120049002E000200490D2
:104FF000FFE703980B900B9880F3118804980CB08E
:1050000080BD000080B58AB008900791069200200C
:10501000059008980290FFE7FFF74EFC0298806B1E
:1050200001900198002828D0FFE702980799FEF721
:1050300073FE01980138029988630298006900287C
:1050400015D0FFE70298103000F0DCFA00280CD0F1
:10505000FFE74EF60450CEF200004FF080510160A1
:10506000BFF34F8FBFF36F8F00E0FFE700E0FFE774
:10507000FFF73AFC0120099077E00698002805D157
:10508000FFE7FFF731FC002009906EE0059800284B
:1050900006D1FFE703A8FFF7EBFC0120059000E035
:1050A000FFE7FFE7FFE7FFF71FFCFFF797FDFFF7BD
:1050B00003FC029890F944000130002805D1FFE775
:1050C0000298002180F84410FFE7029890F945000B
:1050D0000130002805D1FFE70298002180F8451033
:1050E000FFE7FFF701FC03A806A900F0F3F800288A
:1050F00028D1FFE70298FFF717F800281BD0FFE739
:10510000029824300699FFF7CDFC0298FFF750FA79
:1051100000F0CEFA00280CD1FFE74EF60450CEF294
:1051200000004FF080510160BFF34F8FBFF36F8FCE
:1051300000E0FFE705E00298FFF73AFA00F0B8FA5E
:10514000FFE711E00298FFF733FA00F0B1FA029995
:1051500000900846FEF7E8FF002803D0FFE7002094
:10516000099002E0FFE7FFE756E709980AB080BD23
:1051700080B58AB0089007910020069008980390A7
:10518000FFE7FFF799FB0398806B029002980028D5
:1051900024D0FFE7029801380399886303980069D7
:1051A000002815D0FFE70398103000F02BFA0028F4
:1051B0000CD0FFE74EF60450CEF200004FF08051C5
:1051C0000160BFF34F8FBFF36F8F00E0FFE700E098
:1051D000FFE7FFF789FB0120099077E00798002897
:1051E00005D1FFE7FFF780FB002009906EE00698ED
:1051F000002806D1FFE704A8FFF73AFC012006903B
:1052000000E0FFE7FFE7FFE7FFF76EFBFFF7E6FCD5
:10521000FFF752FB039890F944000130002805D1B4
:10522000FFE70398002180F84410FFE7039890F906
:1052300045000130002805D1FFE70398002180F8E0
:105240004510FFE7FFF750FB04A807A900F042F85C
:10525000002828D1FFE70398FEF766FF00281BD03F
:10526000FFE7039824300799FFF71CFC0398FFF72A
:105270009FF900F01DFA00280CD1FFE74EF604500C
:10528000CEF200004FF080510160BFF34F8FBFF3AB
:105290006F8F00E0FFE705E00398FFF789F900F062
:1052A00007FAFFE711E00398FFF782F900F000FA30
:1052B000039901900846FEF737FF002803D0FFE767
:1052C0000020099002E0FFE7FFE75AE709980AB0DB
:1052D00080BD000080B586B005900491FFF7ECFA20
:1052E00044F2A470C2F2000000680290029805998E
:1052F0004968401A0190049800680130002803D1E1
:10530000FFE7002003902BE044F25C70C2F2000043
:10531000006805990968884209D0FFE70298059955
:105320004968884203D3FFE70120039017E0019802
:105330000499096888420BD2FFE7019804990A682A
:10534000101A08600598FFF793FB0020039005E012
:1053500004980021016001200390FFE7FFE7FFE7C9
:10536000FFF7C2FA039806B080BD000070B58EB09A
:10537000DDF84CC0DDF848E014460D900C91ADF816
:105380002E200A93BDF82E008000CDF818C0CDF86D
:1053900014E00494FFF768F907900798002811D0EB
:1053A000FFE75820FFF760F909900998002804D01A
:1053B000FFE707980999086303E00798FFF7A8FA41
:1053C000FFE702E000200990FFE7099800281AD0C3
:1053D000FFE70D980C99BDF82E200A9BDDF848C018
:1053E000DDF84CE0099C6D460026EE60AC60C5F827
:1053F00004E0C5F800C0FEF787FD0998FEF794FBAE
:105400000120089003E04FF0FF300890FFE7089874
:105410000EB070BD81B044F27870C2F20000006836
:10542000002803D1FFE7012000900EE044F2F46071
:10543000C2F200000068002803D1FFE702200090BC
:1054400002E000200090FFE7FFE7009801B07047FE
:1054500081B044F2A470C2F200000068009000988D
:1054600001B0704780B586B00020039044F2F4602C
:10547000C2F200000068002840F0B980FFE744F263
:10548000A470C2F20000016801310291029901602A
:105490000298002818D1FFE740F21420C2F2000061
:1054A0000168019140F21821C2F200010A6802600D
:1054B0000198086044F25C70C2F20000016801319A
:1054C0000160FEF7ADFF00E0FFE7029844F258717B
:1054D000C2F200010968884267D3FFE7FFE740F2A4
:1054E0001420C2F2000000680068002808D1FFE71D
:1054F00044F25870C2F200004FF0FF31016053E0F7
:1055000040F21420C2F200000068C068C068059034
:1055100005984068049002980499884207D2FFE7F2
:10552000049844F25871C2F2000108603CE0FFE7C1
:1055300005980430FFF728F90599896A002905D0F4
:10554000FFE705981830FFF71FF900E0FFE705981F
:10555000C06A012101FA00F044F2FC61C2F20001CC
:105560000A68104308600598C16A01EB810140F2A6
:105570002022C2F2000202EB8101043000900846B2
:105580000099FFF77BF90598C06A40F20C21C2F23E
:1055900000010968C96A884203D3FFE7012003902C
:1055A00000E0FFE7FFE79AE7FFE740F20C20C2F2D6
:1055B00000000068C06A00EB800040F22021C2F2C7
:1055C000000151F82000022803D3FFE701200390D7
:1055D00000E0FFE744F2B070C2F20000006800286B
:1055E00003D0FFE70120039000E0FFE707E044F26B
:1055F0006070C2F20000016801310160FFE70398AA
:1056000006B080BD80B584B003900398C068C068C0
:10561000029002981830FFF7B7F844F2F461C2F232
:1056200000010968002920D1FFE702980430FFF744
:10563000ABF80299C96A012202FA01F144F2FC6254
:10564000C2F200021368194311600299CA6A02EBA0
:10565000820240F22023C2F2000303EB82020431F3
:1056600000901046FFF70AF909E0029800F11801CE
:1056700044F26470C2F20000FFF700F9FFE70298FD
:10568000C06A40F20C21C2F200010968C96A88426E
:1056900008D9FFE70120019044F2B071C2F2000185
:1056A000086002E000200190FFE7019804B080BD8F
:1056B00080B586B0002005900490FFF7FDF844F215
:1056C000F460C2F20000016801390160006800283E
:1056D00040F09B80FFE744F2EC60C2F200000068FB
:1056E000002800F09180FFE7FFE744F26470C2F207
:1056F00000000068002840D0FFE744F26470C2F266
:105700000000C068C068059005981830FFF73CF8A5
:105710000599043102900846FFF736F80599C96AE1
:10572000012202FA01F144F2FC62C2F200021368A3
:10573000194311600599CA6A02EB820240F22023E4
:10574000C2F2000303EB8202043101901046FFF71E
:1057500095F80598C06A40F20C21C2F20001096870
:10576000C96A884207D3FFE744F2B070C2F2000072
:105770000121016000E0FFE7B7E70598002803D0AA
:10578000FFE7FEF74DFEFFE744F26070C2F2000053
:1057900000680390039800281DD0FFE7FFE7FFF79C
:1057A00061FE002807D0FFE744F2B070C2F20000AB
:1057B0000121016000E0FFE7039801380390FFE753
:1057C00003980028EBD1FFE744F26070C2F20000BA
:1057D0000021016000E0FFE744F2B070C2F2000077
:1057E000006800280ED0FFE7012004904EF6045018
:1057F000CEF200004FF080510160BFF34F8FBFF336
:105800006F8F00E0FFE7FFE700E0FFE7FFF76CF8CE
:10581000049806B080BD000080B584B000200390DD
:10582000FEF714FA44F2A870C2F2000000680028E3
:1058300017D0FFE744F2AC70C2F20000694648603E
:105840000220086044F29150C0F6000045F63F1176
:10585000C0F600014FF480720023FFF787FD03902C
:1058600000E0FFE7039804B080BD000080B58AB077
:10587000DDF830C00990089107920693002005904A
:1058800044F2A870C2F200000068002836D0FFE79A
:1058900008980190079802900998039008980528A5
:1058A0001FDCFFE7FFF7B6FD02280CD1FFE744F24B
:1058B000A870C2F2000000680C9A01A90023FFF74B
:1058C0007DFA05900CE044F2A870C2F20000006876
:1058D00001A900220092009BFFF770FA0590FFE7F4
:1058E0000BE044F2A870C2F200000068069A01A919
:1058F0000023FFF723FB0590FFE700E0FFE7059893
:105900000AB080BD02E008C8121F08C1002AFAD1FF
:1059100070477047002001E001C1121F002AFBD12F
:1059200070470000000000000000010203040607A9
:105930000809000000000102030449444C450054DA
:105940006D7220537663005461736B2D3100546186
:10595000736B2D32005461736B2D34005461736B83
:105960002D350000885900080000002018000000B4
:1059700004590008A059000818000020A04B00009E
:105980001459000800000000010000000024F40089
:105990000100000010000000AAAAAAAA000000004E
:04000005080000ED02
:00000001FF
